:100000000C945C000C9484000C9484000C94840088
:100010000C9484000C9484000C9484000C94840050
:100020000C9484000C9484000C9484000C94840040
:100030000C9484000C9484000C9484000C94840030
:100040000C9405030C9484000C943B050C946D05F2
:100050000C9484000C9484000C9484000C94840010
:100060000C9484000C948400E502E802EB02EE029A
:10007000F102F402F702FA020102040810204080A3
:1000800001020408102001020408102004040404E2
:100090000404040402020202020203030303030332
:1000A00000000000250028002B00000000002400B4
:1000B00027002A008600930511241FBECFEFD8E049
:1000C000DEBFCDBF11E0A0E0B1E0E2ECFDE002C098
:1000D00005900D92A235B107D9F722E0A2E5B1E073
:1000E00001C01D92A431B207E1F710E0CCE5D0E0E9
:1000F00004C02197FE010E94D906CA35D107C9F76D
:100100000E941A010C94DF060C940000CF92EF922B
:100110000F9388E0C82E99E0E92E0AE02BE040E03A
:1001200050E061E070E080E691E00E94210122E071
:10013000C22E33E0E32E04E025E040E050E060E032
:1001400070E082E591E00E9421010F91EF90CF9045
:10015000089580E691E00E94DA0182E591E00E9434
:10016000DA0126E040E855E260E070E087E791E0E0
:100170000C94D604CF93DF938EE00E94EB03EC0146
:1001800061E071E087E791E00E94FF054AE050E0FE
:10019000BE0187E791E00E949D06CE018C529140FE
:1001A000853F914038F420E030E04EE150E060E0DF
:1001B00070E00CC0C132D3401CF020E030E002C03F
:1001C00021E030E04FE050E06AE070E080E691E04E
:1001D0000E94BC028FE00E94EB03EC0165E071E03D
:1001E00087E791E00E94FF054AE050E0BE0187E703
:1001F00091E00E94A406CE01885C91098935924065
:1002000038F420E030E04EE150E060E070E00CC0F7
:10021000C132D3401CF020E030E002C021E030E0E9
:100220004FE050E064E170E082E591E0DF91CF9132
:100230000C94BC020E94B0030E94A9000E94BA0064
:10024000FDCFCF92EF920F931F93DC018BE091E0F3
:1002500011969C938E9313967C936E93129715969A
:100260005C934E93149730E0F901E457FF4FE4910B
:100270001696EC93169710E0F801E457FF4FE491BF
:100280001796EC9317974E2D50E0FA01E457FF4F65
:10029000E4911896EC9318978C2D90E0FC01E457AC
:1002A000FF4FE4911996EC931997F901E858FF4F25
:1002B00024911A962C931A97F801E858FF4F04914D
:1002C0001B960C931B97FA01E858FF4F44911C961C
:1002D0004C931C97FC01E858FF4F84911D968C931A
:1002E0001F910F91EF90CF900895CF93DF93DC0192
:1002F0001696EC9116971A968C911A97F0E0EE0FDD
:10030000FF1FE056FF4F63FF05C0C591D491988150
:10031000892B05C0C591D4919881809589238883C4
:100320001796EC9117971B968C911B97F0E0EE0FA8
:10033000FF1FE056FF4F62FF05C0C591D491988121
:10034000892B05C0C591D491988180958923888394
:100350001896EC9118971C968C911C97F0E0EE0F74
:10036000FF1FE056FF4F61FF05C0C591D4919881F2
:10037000892B05C0C591D491988180958923888364
:100380001996EC9119971D968C91F0E0EE0FFF1FD6
:10039000E056FF4F60FF05C0A591B4919C91892B59
:1003A00005C0A591B4919C91809589238C93DF9190
:1003B000CF910895CF93DF93DC011696EC911697B9
:1003C000F0E0EE0FFF1FE655FF4FC591D4919881E5
:1003D0001A968C911A97892B88831796EC91179708
:1003E000F0E0EE0FFF1FE655FF4FC591D4919881C5
:1003F0001B968C911B97892B88831896EC911897E4
:10040000F0E0EE0FFF1FE655FF4FC591D4919881A4
:100410001C968C911C97892B88831996EC911997BF
:10042000F0E0EE0FFF1FE655FF4FC591D491988184
:100430001D968C911D97892B888360E0CD01DF91FB
:10044000CF910C947501CF93DF93DC011696EC915C
:100450001697F0E0EE0FFF1FE655FF4FC591D491C0
:1004600098811A968C911A9780958923888317967C
:10047000EC911797F0E0EE0FFF1FE655FF4FC59187
:10048000D49198811B968C911B97809589238883A2
:100490001896EC911897F0E0EE0FFF1FE655FF4F0E
:1004A000C591D49198811C968C911C978095892335
:1004B00088831996EC911997F0E0EE0FFF1FE6552F
:1004C000FF4FC591D49198811D968C911D97809571
:1004D0008923888360E0CD01DF91CF910C94750171
:1004E0008F929F92AF92BF92CF92DF92EF92FF9244
:1004F0000F931F93CF93DF93EC017B0169014801B8
:1005000000E010E0A12CB12C442399F00C151D053E
:1005100019F1802F8370F701E80FF11D6081CE0182
:100520000E947501C501B4010E9474030F5F1F4F43
:10053000EDCF0C151D0581F0802F8770F701E80FB6
:10054000F11D6081CE010E947501C501B4010E94B8
:1005500074030F5F1F4FEDCF60E0CE01DF91CF91AD
:100560001F910F91FF90EF90DF90CF90BF90AF90D1
:100570009F908F900C947501CF92DF92EF92FF9233
:100580000F931F93DC011296ED91FC9113976F016D
:10059000CC0CDD1CCC0CDD1C1496ED91FC91159758
:1005A000EE0FFF1FEC29E22BCE2EEE0FDD08EE083A
:1005B000FF08B8E0CB16D10408F58A019B01F601CB
:1005C000EC5CFF4F41E00C94D90665E271E014C089
:1005D00061E271E011C06DE271E00EC069E271E0AC
:1005E0000BC065E171E008C061E171E005C06DE13B
:1005F00071E002C069E171E00E9470021F910F91E9
:10060000FF90EF90DF90CF9008951F920F920FB65A
:100610000F9211242F933F938F939F93AF93BF9388
:1006200080916F0190917001A0917101B091720160
:1006300030916E0123E0230F2D3720F40196A11D88
:10064000B11D05C026E8230F0296A11DB11D209300
:100650006E0180936F0190937001A0937101B0932C
:1006600072018091730190917401A0917501B09114
:1006700076010196A11DB11D8093730190937401C1
:10068000A0937501B0937601BF91AF919F918F9127
:100690003F912F910F900FBE0F901F9018953FB76D
:1006A000F8948091730190917401A0917501B091BB
:1006B000760126B5A89B05C02F3F19F00196A11D14
:1006C000B11D3FBFBA2FA92F982F8827820F911DE8
:1006D000A11DB11DBC01CD0142E0660F771F881F2F
:1006E000991F4A95D1F708958F929F92AF92BF922A
:1006F000CF92DF92EF92FF926B017C010E944F0339
:100700004B015C01C114D104E104F10401F10E9428
:10071000B6060E944F03DC01CB0188199909AA098A
:10072000BB09883E9340A105B10560F321E0C21AE0
:10073000D108E108F10888EE880E83E0981EA11C1C
:10074000B11CC114D104E104F10419F7DBCFFF900F
:10075000EF90DF90CF90BF90AF909F908F900895D3
:10076000789484B5826084BD84B5816084BD85B58C
:10077000826085BD85B5816085BDEEE6F0E0808153
:1007800081608083E1E8F0E0108280818260808374
:10079000808181608083E0E8F0E0808181608083F7
:1007A000E1EBF0E0808184608083E0EBF0E0808129
:1007B00081608083EAE7F0E08081846080838081CB
:1007C0008260808380818160808380818068808373
:1007D0001092C10008958E3008F08E5020910001D3
:1007E00090E4299F900111248770822B80937C00D4
:1007F00080917A00806480937A0080917A0086FDEF
:10080000FCCF809178002091790090E0922B0895A0
:10081000FC01918D228D892F90E0805C9F4F821B7F
:1008200091098F7399270895FC01918D828D9817F6
:1008300031F0828DE80FF11D858D90E008958FEFE6
:100840009FEF0895FC01918D828D981761F0828D44
:10085000DF01A80FB11D5D968C91928D9F5F9F73F4
:10086000928F90E008958FEF9FEF0895FC01538DD4
:10087000448D252F30E0842F90E0821B930B54177A
:1008800010F0CF96089501970895FC01848DDF0143
:10089000A80FB11DA35ABF4F2C91848D90E00196F3
:1008A0008F739927848FA689B7892C93A089B189E2
:1008B0008C91837080648C93938D848D981306C083
:1008C0000288F389E02D80818F7D80830895EF92E7
:1008D000FF920F931F93CF93DF93EC0181E0888FFA
:1008E0009B8D8C8D981305C0E889F989808185FDE1
:1008F00026C0F62E0B8D10E00F5F1F4F0F731127D0
:10090000E02E8C8DE8120CC00FB607FCFACFE889F8
:10091000F989808185FFF5CFCE010E944504F1CF92
:100920008B8DFE01E80FF11DE35AFF4FF0829FB758
:10093000F8940B8FEA89FB89808180620AC09FB797
:10094000F894EE89FF896083E889F9898081837052
:10095000806480839FBF81E090E0DF91CF911F9101
:100960000F91FF90EF900895CF93DF93EC01888D66
:100970008823C9F0EA89FB89808185FD05C0A889A3
:10098000B9898C9186FD0FC00FB607FCF5CF808129
:1009900085FFF2CFA889B9898C9185FFEDCFCE0173
:1009A0000E944504E7CFDF91CF910895CF92DF9267
:1009B000EF92FF921F93CF93DF93EC016A017B01CB
:1009C000122FE889F98982E080834115514E610533
:1009D0007105B1F060E079E08DE390E0A701960148
:1009E0000E94B706DA01C9010197A109B109B695BC
:1009F000A795979587959C01211580E13807A8F068
:100A0000E889F989108260E874E88EE190E0A70136
:100A100096010E94B706DA01C9010197A109B1093F
:100A2000B695A795979587959C01EC85FD853083B4
:100A3000EE85FF852083188EEC89FD891083EA8975
:100A4000FB89808180618083EA89FB89808188605D
:100A50008083EA89FB89808180688083EA89FB89B9
:100A600080818F7D8083DF91CF911F91FF90EF90E8
:100A7000DF90CF9008951F920F920FB60F9211241E
:100A80002F938F939F93EF93FF93E0918701F091C2
:100A900088018081E0918D01F0918E0182FD12C06C
:100AA0009081809190018F5F8F73209191018217C7
:100AB00051F0E0919001F0E0E958FE4F958F80935E
:100AC000900101C08081FF91EF919F918F912F91B3
:100AD0000F900FBE0F901F9018951F920F920FB698
:100AE0000F9211242F933F934F935F936F937F93B4
:100AF0008F939F93AF93BF93EF93FF9387E791E01B
:100B00000E944504FF91EF91BF91AF919F918F910A
:100B10007F916F915F914F913F912F910F900FBEF9
:100B20000F901F901895E7E7F1E01382128288EE8C
:100B300093E0A0E0B0E084839583A683B78385E348
:100B400091E09183808385EC90E09587848784ECA5
:100B500090E09787868780EC90E0918B808B81EC8A
:100B600090E0938B828B82EC90E0958B848B86EC6B
:100B700090E0978B868B118E128E138E148E0895B3
:100B8000CF92DF92EF92FF920F931F93CF93DF9359
:100B90006C017A018B01C0E0D0E0CE15DF0581F059
:100BA000D8016D918D01D601ED91FC910190F081FC
:100BB000E02DC6010995892B11F02196EECF7E011B
:100BC000C701DF91CF911F910F91FF90EF90DF90C0
:100BD000CF9008956115710579F0FB010190002017
:100BE000E9F73197AF01461B570BDC01ED91FC9102
:100BF0000280F381E02D099480E090E008950C9448
:100C0000EA05DC01ED91FC910190F081E02D099461
:100C100063E471E00C94EA058F929F92AF92BF92C9
:100C2000EF92FF920F931F93CF93DF93CDB7DEB771
:100C3000A1970FB6F894DEBF0FBECDBF7C01FA01BD
:100C4000CB0119A2223008F42AE08E010F5D1F4F5C
:100C5000822E912CA12CB12CBF01A50194010E94E0
:100C6000B706F901CA01015011096A3014F4605D38
:100C700001C0695CD8016C93232B242B252B61F7D1
:100C8000B801C7010E94EA05A1960FB6F894DEBF2D
:100C90000FBECDBFDF91CF911F910F91FF90EF90CD
:100CA000BF90AF909F908F900895CF92DF92EF9278
:100CB000FF920F931F93CF93DF932115310581F49A
:100CC000DC01ED91FC910190F081E02D642FDF912A
:100CD000CF911F910F91FF90EF90DF90CF900994EB
:100CE0002A30310501F577FF1DC06A017B01EC0157
:100CF0006DE20E9401068C0144275527BA014C1968
:100D00005D096E097F092AE0CE010E940C06800F62
:100D1000911FDF91CF911F910F91FF90EF90DF9086
:100D2000CF9008952AE0DF91CF911F910F91FF900E
:100D3000EF90DF90CF900C940C069A01AB01770FE7
:100D4000660B770B0C9455060F931F93CF93DF938D
:100D5000EC010E949D068C01CE010E940806800FC6
:100D6000911FDF91CF911F910F9108950895A1E2F6
:100D70001A2EAA1BBB1BFD010DC0AA1FBB1FEE1F15
:100D8000FF1FA217B307E407F50720F0A21BB30B60
:100D9000E40BF50B661F771F881F991F1A9469F7DC
:100DA00060957095809590959B01AC01BD01CF0138
:100DB0000895EE0FFF1F0590F491E02D0994F8942B
:020DC000FFCF63
:100DC20001783A20002C0000000000DA012302BC66
:100DD2000202040108080104020605090A0A0905BB
:100DE2000604020108080102040C060309090306AD
:100DF2000C000000006704C0053604B40408042295
:100E02000414040D0A006E616E00696E66006F764E
:020E1200660078
:00000001FF
