:100000000C945B000C9483000C9483000C9483008C
:100010000C9483000C9483000C9483000C94830054
:100020000C9483000C9483000C9483000C94830044
:100030000C9483000C9483000C9483000C94830034
:100040000C94D5020C9483000C9483000C948300D0
:100050000C9483000C9483000C9483000C94830014
:100060000C9483000C948300B502B802BB02BE025C
:10007000C102C402C702CA02010204081020408063
:1000800001020408102001020408102004040404E2
:100090000404040402020202020203030303030332
:1000A00000000000250028002B00000000002400B4
:1000B00027002A00850011241FBECFEFD8E0DEBF45
:1000C000CDBF11E0A0E0B1E0E8E8F7E002C00590A4
:1000D0000D92AA32B107D9F721E0AAE2B1E001C03E
:1000E0001D92AF34B207E1F710E0CBE5D0E004C0D9
:1000F0002197FE010E94BC03CA35D107C9F70E94AF
:10010000EA000C94C2030C940000CF92EF920F937C
:1001100088E0C82E99E0E92E0AE02BE040E050E0AC
:1001200061E070E088E391E00E94F10022E0C22EDD
:1001300033E0E32E04E025E040E050E060E070E0D2
:100140008AE291E00E94F1000F91EF90CF90089524
:1001500088E391E00E94AA018AE291E00C94AA014E
:1001600021E030E04EE150E064E670E088E391E0A9
:100170000E948C0268EE73E080E090E00E944403ED
:1001800021E030E04EE150E064E670E088E391E089
:100190000E948C0268EE73E080E090E00E944403CD
:1001A00021E030E04EE150E062E370E08AE291E06D
:1001B0000E948C0268EE73E080E090E00E944403AD
:1001C00021E030E04EE150E062E370E08AE291E04D
:1001D0000C948C020E9480030E94A8000E94B00030
:1001E000FDCFCF92EF920F931F93DC0184E091E05B
:1001F00011969C938E9313967C936E9312971596FB
:100200005C934E93149730E0F901E457FF4FE4916B
:100210001696EC93169710E0F801E457FF4FE4911F
:100220001796EC9317974E2D50E0FA01E457FF4FC5
:10023000E4911896EC9318978C2D90E0FC01E4570C
:10024000FF4FE4911996EC931997F901E858FF4F85
:1002500024911A962C931A97F801E858FF4F0491AD
:100260001B960C931B97FA01E858FF4F44911C967C
:100270004C931C97FC01E858FF4F84911D968C937A
:100280001F910F91EF90CF900895CF93DF93DC01F2
:100290001696EC9116971A968C911A97F0E0EE0F3D
:1002A000FF1FE056FF4F63FF05C0C591D4919881B1
:1002B000892B05C0C591D491988180958923888325
:1002C0001796EC9117971B968C911B97F0E0EE0F09
:1002D000FF1FE056FF4F62FF05C0C591D491988182
:1002E000892B05C0C591D4919881809589238883F5
:1002F0001896EC9118971C968C911C97F0E0EE0FD5
:10030000FF1FE056FF4F61FF05C0C591D491988152
:10031000892B05C0C591D4919881809589238883C4
:100320001996EC9119971D968C91F0E0EE0FFF1F36
:10033000E056FF4F60FF05C0A591B4919C91892BB9
:1003400005C0A591B4919C91809589238C93DF91F0
:10035000CF910895CF93DF93DC011696EC91169719
:10036000F0E0EE0FFF1FE655FF4FC591D491988145
:100370001A968C911A97892B88831796EC91179768
:10038000F0E0EE0FFF1FE655FF4FC591D491988125
:100390001B968C911B97892B88831896EC91189744
:1003A000F0E0EE0FFF1FE655FF4FC591D491988105
:1003B0001C968C911C97892B88831996EC91199720
:1003C000F0E0EE0FFF1FE655FF4FC591D4919881E5
:1003D0001D968C911D97892B888360E0CD01DF915C
:1003E000CF910C944501CF93DF93DC011696EC91ED
:1003F0001697F0E0EE0FFF1FE655FF4FC591D49121
:1004000098811A968C911A978095892388831796DC
:10041000EC911797F0E0EE0FFF1FE655FF4FC591E7
:10042000D49198811B968C911B9780958923888302
:100430001896EC911897F0E0EE0FFF1FE655FF4F6E
:10044000C591D49198811C968C911C978095892395
:1004500088831996EC911997F0E0EE0FFF1FE6558F
:10046000FF4FC591D49198811D968C911D978095D1
:100470008923888360E0CD01DF91CF910C94450101
:100480008F929F92AF92BF92CF92DF92EF92FF92A4
:100490000F931F93CF93DF93EC017B016901480118
:1004A00000E010E0A12CB12C442399F00C151D059F
:1004B00019F1802F8370F701E80FF11D6081CE01E3
:1004C0000E944501C501B4010E9444030F5F1F4F04
:1004D000EDCF0C151D0581F0802F8770F701E80F17
:1004E000F11D6081CE010E944501C501B4010E9449
:1004F00044030F5F1F4FEDCF60E0CE01DF91CF913E
:100500001F910F91FF90EF90DF90CF90BF90AF9031
:100510009F908F900C944501CF92DF92EF92FF92C3
:100520000F931F93DC011296ED91FC9113976F01CD
:10053000CC0CDD1CCC0CDD1C1496ED91FC911597B8
:10054000EE0FFF1FEC29E22BCE2EEE0FDD08EE089A
:10055000FF08B8E0CB16D10408F58A019B01F6012B
:10056000EC5CFF4F41E00C94BC036EE171E014C001
:100570006AE171E011C066E271E00EC062E271E012
:100580000BC06EE071E008C06AE071E005C066E192
:1005900071E002C062E171E00E9440021F910F9180
:1005A000FF90EF90DF90CF9008951F920F920FB6BB
:1005B0000F9211242F933F938F939F93AF93BF93E9
:1005C0008091470190914801A0914901B0914A0161
:1005D0003091460123E0230F2D3720F40196A11D11
:1005E000B11D05C026E8230F0296A11DB11D209361
:1005F00046018093470190934801A0934901B0932D
:100600004A0180914B0190914C01A0914D01B09114
:100610004E010196A11DB11D80934B0190934C0199
:10062000A0934D01B0934E01BF91AF919F918F91D7
:100630003F912F910F900FBE0F901F9018953FB7CD
:10064000F89480914B0190914C01A0914D01B09193
:100650004E0126B5A89B05C02F3F19F00196A11D9C
:10066000B11D3FBFBA2FA92F982F8827820F911D48
:10067000A11DB11DBC01CD0142E0660F771F881F8F
:10068000991F4A95D1F708958F929F92AF92BF928A
:10069000CF92DF92EF92FF926B017C010E941F03C9
:1006A0004B015C01C114D104E104F10401F10E9489
:1006B000BB030E941F03DC01CB0188199909AA0919
:1006C000BB09883E9340A105B10560F321E0C21A41
:1006D000D108E108F10888EE880E83E0981EA11C7D
:1006E000B11CC114D104E104F10419F7DBCFFF9070
:1006F000EF90DF90CF90BF90AF909F908F90089534
:10070000789484B5826084BD84B5816084BD85B5EC
:10071000826085BD85B5816085BDEEE6F0E08081B3
:1007200081608083E1E8F0E01082808182608083D4
:10073000808181608083E0E8F0E080818160808357
:10074000E1EBF0E0808184608083E0EBF0E0808189
:1007500081608083EAE7F0E080818460808380812B
:1007600082608083808181608083808180688083D3
:100770001092C10008950895EE0FFF1F0590F491A7
:08078000E02D0994F894FFCF6D
:1007880000000000AA01F3018C020204010808011C
:1007980004020605090A0A090506040201080801F7
:0A07A80002040C0603090903060C05
:00000001FF
